:0400000038EF12F0D3
:10060000004E4F204C4F475320544F20444F574EDD
:100610004C4F4144203A2820200A0048483A4D4D8A
:100620003A53532020202020202020202000436CFB
:10063000656172696E67206C6F67732E2E2E2020A5
:1006400000576169742061206D696E7574652020A2
:10065000202000202054494D4520202020204556B0
:100660002053502000202020202020202020202047
:100670002020202020004E4F204C4F475320202088
:1006800020202020202000544F20444953504C412A
:1006900059203A2020202000544F20444F574E4CE0
:1006A0004F4144203A2020200054494D452020202D
:1006B000202020455620205350005468726F7567E3
:1006C0006820554152542E2E2E00446F776E6C6F69
:0F06D0006164696E672E2E000A0D002D3E00003A
:1006E0000001DA51DB11D8A478EF03F07AEF03F0C0
:1006F0009BEF03F0000EDB6F020EDA6F000E016E4F
:10070000010E9AEC13F07BEC11F01B0E036E0350FC
:10071000D8A4060E046E820E056E6EEC12F0650E05
:10072000036E0350D8A4060E046EC00E056E6EEC68
:1007300012F0F3EC10F00001BE51BD1109E1E90E19
:10074000BB5D030EBC59D8B0A8EF03F0AAEF03F0CD
:1007500046EF04F0C00E0E6E42C001F043C002F03E
:1007600044C003F045C004F00A0E056E000E066E8C
:10077000000E076E000E086E52EC10F00150300FA4
:1007800054EC14F0C10E0E6E42C001F043C002F0F2
:1007900044C003F045C004F00A0E056E000E066E5C
:1007A000000E076E000E086E37EC11F00150300F8E
:1007B00054EC14F0C20E0E6E3A0E54EC14F0C30E4C
:1007C0000E6E3EC001F03FC002F040C003F041C0D9
:1007D00004F00A0E056E000E066E000E076E000E87
:1007E000086E52EC10F00150300F54EC14F0C40EAF
:1007F0000E6E3EC001F03FC002F040C003F041C0A9
:1008000004F00A0E056E000E066E000E076E000E56
:10081000086E37EC11F00150300F54EC14F0C50E97
:100820000E6E3A0E54EC14F0C60E0E6E3AC001F085
:100830003BC002F03CC003F03DC004F00A0E056E60
:10084000000E066E000E076E000E086E52EC10F0E1
:100850000150300F54EC14F0C70E0E6E3AC001F088
:100860003BC002F03CC003F03DC004F00A0E056E30
:10087000000E066E000E076E000E086E37EC11F0CB
:100880000150300F54EC14F0ACEF04F0BE51BD1128
:100890000BE1E90EBB5D030EBC59D8A052EF04F08A
:1008A00054EF04F0A2EF04F0BE51BD1109E1090EAE
:1008B000BB5D070EBC59D8B060EF04F062EF04F0E6
:1008C000A2EF04F056505710D8A469EF04F06BEF74
:1008D00004F077EF04F0C00E0E6E200E54EC14F00E
:1008E000C10E0E6E200E54EC14F0ACEF04F0560462
:1008F0005710D8A47EEF04F080EF04F08CEF04F0E2
:10090000C30E0E6E200E54EC14F0C40E0E6E200EAC
:1009100054EC14F0ACEF04F0020E56185710D8A4A3
:1009200094EF04F096EF04F0ACEF04F0C60E0E6EF8
:10093000200E54EC14F0C70E0E6E200E54EC14F082
:10094000ACEF04F0000EBB6F000EBC6F000EBD6F6D
:10095000000EBE6FACEF04F0010E0001BB27000ECD
:10096000BC23BD23BE230B0E5E18D8A4BAEF04F03F
:10097000BCEF04F046EF05F0050E5218531054106A
:100980005510D8A4C6EF04F0C8EF04F046EF05F008
:1009900056505710D8A4CFEF04F0D1EF04F0F1EF88
:1009A00004F0010E4224016E000E4320026E000E80
:1009B0004420036E000E4520046E180E056E000ED6
:1009C000066E000E076E000E086E37EC11F001C0C7
:1009D00042F002C043F003C044F004C045F0B3EF5E
:1009E00005F056045710D8A4F8EF04F0FAEF04F01D
:1009F0001AEF05F0010E3E24016E000E3F20026E3C
:100A0000000E4020036E000E4120046E3C0E056E69
:100A1000000E066E000E076E000E086E37EC11F029
:100A200001C03EF002C03FF003C040F004C041F0FE
:100A3000B3EF05F0020E56185710D8A422EF05F0B8
:100A400024EF05F044EF05F0010E3A24016E000E8C
:100A50003B20026E000E3C20036E000E3D20046E13
:100A60003C0E056E000E066E000E076E000E086E40
:100A700037EC11F001C03AF002C03BF003C03CF08B
:100A800004C03DF0B3EF05F0B3EF05F00C0E5E18B7
:100A9000D8A44DEF05F04FEF05F06DEF05F0050E12
:100AA0005218531054105510D8A459EF05F05BEFAD
:100AB00005F06DEF05F0010E5624016E000E572073
:100AC000026E000E046E030E036EFBEC0FF001C00D
:100AD00056F002C057F0B3EF05F05E04D8A473EFF0
:100AE00005F075EF05F097EF05F0050E521853105D
:100AF00054105510D8A47FEF05F081EF05F097EF63
:100B000005F0ECEC0DF0000E016E010E9AEC13F006
:100B1000000E0001DB6F000EDA6F010E526E000E48
:100B2000536E000E546E000E556EB3EF05F0020EBC
:100B30005E18D8A49EEF05F0A0EF05F0B3EF05F026
:100B4000050E5218531054105510D8A4AAEF05F0F2
:100B5000ACEF05F0B3EF05F0000E016E010E9AEC5C
:100B600013F088EF05F012001950800B266E195013
:100B700019242D6E18AEBFEF05F0C1EF05F0C2EFDE
:100B800005F02D802D50D8B4C8EF05F0CAEF05F060
:100B9000DEEF05F02D28D8A4D0EF05F0D2EF05F058
:100BA000DAEF05F0000E166E000E176E000E186ECE
:100BB000000E196E188E196AE6EF05F0000E166E1B
:100BC000000E176E000E186E000E196E1D50800B71
:100BD000261A1D501D242E6E1CAEF1EF05F0F3EF0A
:100BE00005F0F4EF05F02E802E50D8B4FAEF05F0A2
:100BF000FCEF05F010EF06F02E28D8A402EF06F067
:100C000004EF06F00CEF06F0000E1A6E000E1B6EDD
:100C1000000E1C6E000E1D6E1C8E1D6A18EF06F075
:100C2000000E1A6E000E1B6E000E1C6E000E1D6E66
:100C30001A501B101C101D10D8A421EF06F023EF32
:100C400006F03BEF06F0000E166E000E176E000E5B
:100C5000186E000E196E800E18127F0E1912265093
:100C6000191216C016F017C017F018C018F019C0E6
:100C700019F07BEF07F02D50D8A441EF06F043EFB9
:100C800006F04DEF06F0000E166E000E176E000E09
:100C9000186E000E196E7BEF07F02E502DC01EF05F
:100CA0001F6A1E5E000E1F5A7F0E1E24276E000E46
:100CB0001F20286E16C022F017C023F018C024F0A1
:100CC00019C025F0000E166E000E176E000E186E7D
:100CD000000E196E000E296E000E2A6E000E2B6E8D
:100CE000000E2C6E2E6AADEF06F02E50D8B47BEFBE
:100CF00006F07DEF06F094EF06F0D890223623360A
:100D000024362536D89016361736183619362CAEB6
:100D10008CEF06F08EEF06F08FEF06F01680D8907D
:100D200029362A362B362C361A50225C1B50235873
:100D30001C5024581D502558D8A0A1EF06F0A3EF51
:100D400006F0ACEF06F02C8C1A50225E1B50235A92
:100D50001C50245A1D50255A2E2A190E2E64B3EF0A
:100D600006F0B5EF06F075EF06F0225023102410C0
:100D70002510D8B4BEEF06F0C0EF06F0D8EF06F0AD
:100D80002980D8EF06F0D89016361736183619365F
:100D90002CAECDEF06F0CFEF06F0D0EF06F01680C8
:100DA000D89029362A362B362C362706D8A0280686
:100DB00018AEDDEF06F0DFEF06F0C3EF06F02E6AA7
:100DC0002CAEE5EF06F0E7EF06F00BEF07F0FF0EB5
:100DD00029141E6EFF0E2A141F6EFF0E2B14206E98
:100DE0007F0E2C14216E1E501F1020102110D8B41D
:100DF000FCEF06F0FEEF06F002EF07F0010E2E6E9C
:100E00000BEF07F016A007EF07F009EF07F00BEF65
:100E100007F0FEEF06F02E50D8B411EF07F013EFF5
:100E200007F037EF07F0010E1626000E17221822E2
:100E3000192219A01EEF07F020EF07F037EF07F097
:100E400016C01EF017C01FF018C020F019C021F006
:100E50002134213220321F321E321EC016F01FC034
:100E600017F020C018F021C019F0274A282A28BE00
:100E700042EF07F0285008E12728D8A042EF07F0FA
:100E800044EF07F04FEF07F0000E286E2768000EC2
:100E9000166E000E176E000E186E000E196E28BE2C
:100EA0005CEF07F0285006E12704D8B05AEF07F0AE
:100EB0005CEF07F069EF07F0000E286E000E276E5A
:100EC000000E166E000E176E000E186E000E196ED4
:100ED000266A27C02DF02DA070EF07F072EF07F003
:100EE00075EF07F0188E76EF07F0189ED8902D302A
:100EF000196E2FEF06F01200000E0001BF6F000EFA
:100F0000C06F000EC16F000EC26F0C0E5E18D8A429
:100F10008CEF07F08EEF07F0CCEF07F05204531080
:100F200054105510D8A497EF07F099EF07F0CCEFC5
:100F300007F0C751C811C911CA11D8A4A2EF07F010
:100F4000A4EF07F0AEEF07F0010EC76F000EC86FF9
:100F5000000EC96F000ECA6F2FEF08F04650471001
:100F600048104910D8B4B7EF07F0B9EF07F0C4EF55
:100F700007F04604471048104910D8A4C2EF07F004
:100F8000C4EF07F02FEF08F0010E4626000E4722AF
:100F9000482249222FEF08F00B0E5E18D8A4D3EF99
:100FA00007F0D5EF07F013EF08F052045310541078
:100FB0005510D8A4DEEF07F0E0EF07F013EF08F0CC
:100FC000C705C811C911CA11D8A4E9EF07F0EBEFA2
:100FD00007F0F5EF07F0000EC76F000EC86F000EA8
:100FE000C96F000ECA6F2FEF08F046044710481073
:100FF0004910D8B4FEEF07F000EF08F00CEF08F04E
:10100000020E4618471048104910D8A40AEF08F0FD
:101010000CEF08F02FEF08F04606000E475A485A2A
:10102000495A2FEF08F0020E5E18D8A41AEF08F004
:101030001CEF08F02FEF08F0520453105410551015
:10104000D8A425EF08F027EF08F02FEF08F0000EE6
:10105000526E000E536E000E546E000E556E5E04FE
:10106000D8A435EF08F037EF08F0AEEF08F0C70569
:10107000C811C911CA11D8A440EF08F042EF08F016
:1010800050EF08F0010E4624C36F000E4720C46FD6
:10109000000E4820C56F000E4920C66F58EF08F0BB
:1010A00046C0C3F047C0C4F048C0C5F049C0C6F050
:1010B000C351C411C511C611D8A461EF08F063EF84
:1010C00008F06DEF08F0020E526E000E536E000E27
:1010D000546E000E556EAEEF08F0C305C411C51175
:1010E000C611D8A476EF08F078EF08F082EF08F088
:1010F000030E526E000E536E000E546E000E556EAF
:10110000AEEF08F0020EC319C411C511C611D8A460
:101110008CEF08F08EEF08F098EF08F0040E526E96
:10112000000E536E000E546E000E556EAEEF08F0BA
:10113000030EC319C411C511C611D8A4A2EF08F03B
:10114000A4EF08F0AEEF08F0050E526E000E536EDD
:10115000000E546E000E556EAEEF08F052045310A0
:1011600054105510D8A4B7EF08F0B9EF08F0BBEF52
:1011700008F0A4EC10F0020E5E18D8A4C2EF08F03C
:10118000C4EF08F0D7EF08F0520453105410551074
:10119000D8A4CDEF08F0CFEF08F0D7EF08F0000E9D
:1011A000526E000E536E000E546E000E556E1200FD
:1011B000530E036E0350D8A4060E046E800E056E07
:1011C0006EEC12F05850066E5950076E086A096AA4
:1011D0000001D351065CD4510758D5510858D65157
:1011E0000958D8B0F6EF08F0F8EF08F0AEEF09F0C4
:1011F000595007E10A0E585CD8B001EF09F003EF2F
:1012000009F0AEEF09F0000E0B6E000E0A6E8DEFC6
:1012100009F00A500B10D8A410EF09F012EF09F0F2
:1012200036EF09F0110E5802F3CF06F0F4CF07F0B5
:101230005902F3500726000E0624086E010E0720FF
:10124000096E0A500824D96E0B500920DA6E58C076
:1012500001F059C002F0000E046E0A0E036EA4ECF9
:1012600012F00150300FDF6E0A4A0B2A0A040B10ED
:10127000D8B43DEF09F03FEF09F053EF09F00A0E43
:101280000A180B10D8B447EF09F049EF09F053EFF3
:1012900009F00D0E0A180B10D8A451EF09F053EF06
:1012A00009F06EEF09F0110E5802F3CF06F0F4CFFB
:1012B00007F05902F3500726000E0624086E010EAF
:1012C0000720096E0A500824D96E0B500920DA6EE7
:1012D000200EDF6E0A4A0B2A8DEF09F0110E58021C
:1012E000F3CF06F0F4CF07F05902F3500726000EB3
:1012F0000624086E010E0720096E0A500824D96ED4
:101300000B500920DA6E0001E05100EC14F0DF6EA2
:101310000A4A0B2A0001E04BE12B0B5009E1100EA9
:101320000A5CD8A096EF09F098EF09F009EF09F0F0
:10133000110E5802F3CF06F0F4CF07F05902F35024
:101340000726000E0624086E010E0720096E0A50BB
:101350000824D96E0B500920DA6EDF6A584A592AE0
:101360004A504B104C104D10D8A4B9EF09F0BBEF08
:1013700009F0D1EF09F0760E036E0350D8A4060EE3
:10138000046E800E056E6EEC12F0870E036E035035
:10139000D8A4060E046EC20E056E6EEC12F011EFAC
:1013A0000AF00B0E5E18D8A4D8EF09F0DAEF09F0B6
:1013B000E8EF09F05A505B10D8B4E1EF09F0E3EF21
:1013C00009F0FEEF09F05A06D8A05B06FEEF09F01F
:1013D0000C0E5E18D8A4EFEF09F0F1EF09F0FEEF64
:1013E00009F05B5007E1090E5A5CD8B0FAEF09F03A
:1013F000FCEF09F0FEEF09F05A4A5B2A110E5A027F
:10140000F3CF06F0F4CF07F05B02F3500726000E8F
:101410000624036E010E0720046EC00E056E6EECEE
:1014200012F0020E5E18D8A418EF0AF01AEF0AF0B4
:101430002EEF0AF0020E5218531054105510D8A473
:1014400024EF0AF026EF0AF02EEF0AF0010E526E9A
:10145000000E536E000E546E000E556E1200A90E53
:10146000036E0350D8A4060E046E800E056E6EEC5B
:1014700012F0E30E036E046AC00E056E6EEC12F0FD
:10148000010EFEEC11F05E6E5E04D8A44AEF0AF085
:101490004CEF0AF05CEF0AF0080E4A6E000E4B6E3D
:1014A000000E4C6E000E4D6E4AC012F04BC013F091
:1014B00033EC0DF0BFEF0AF0080E4A184B104C1039
:1014C0004D10D8A466EF0AF068EF0AF084EF0AF036
:1014D000020E5E18D8B46FEF0AF071EF0AF07AEFDF
:1014E0000AF0030E5E18D8A478EF0AF07AEF0AF03B
:1014F00084EF0AF0010E4A6E000E4B6E000E4C6E29
:10150000000E4D6E54EF0AF0020E5E18D8A48BEF59
:101510000AF08DEF0AF0A2EF0AF04D504C104B107C
:1015200007E1070E4A5CD8B098EF0AF09AEF0AF08C
:1015300054EF0AF0010E4A26000E4B224C224D2297
:1015400054EF0AF0030E5E18D8A4A9EF0AF0ABEF2F
:101550000AF0BFEF0AF04D504C104B1009E1020E9B
:101560004A5CD8A0B6EF0AF0B8EF0AF054EF0AF0E0
:101570004A06000E4B5A4C5A4D5A54EF0AF0E30EED
:10158000036E046AC00E056E6EEC12F0730E036EED
:101590000350D8A4060E046EC80E056E6EEC12F051
:1015A0004A50030DF350A00F396E39C003F0046A9E
:1015B000CA0E056E6EEC12F0730E036E0350D8A4C3
:1015C000060E046ECC0E056E6EEC12F0140E1A6E42
:1015D000AE0E1B6E230E1C6E410E1D6E040E57ECDC
:1015E00013F001C008F002C009F00A6A0B6A000E8D
:1015F00059EC0CF008C016F009C017F00AC018F03A
:101600000BC019F0B4EC05F016C02FF017C030F085
:1016100018C031F019C032F010EC0FF02FC04EF0AE
:1016200030C04FF031C050F032C051F05150501026
:101630004F1009E1640E4E5CD8A021EF0BF023EFB0
:101640000BF02BEF0BF0630E4E6E000E4F6E000E84
:10165000506E000E516ECE0E0E6E4EC001F04FC099
:1016600002F050C003F051C004F00A0E056E000EE7
:10167000066E000E076E000E086E37EC11F001507A
:10168000300F54EC14F0CF0E0E6E4EC001F04FC070
:1016900002F050C003F051C004F00A0E056E000EB7
:1016A000066E000E076E000E086E52EC10F0015030
:1016B000300F54EC14F07BEC11F0D6EC12F00B0E62
:1016C0005E18D8A466EF0BF068EF0BF07BEF0BF021
:1016D0005250531054105510D8A471EF0BF073EF03
:1016E0000BF07BEF0BF0010E526E000E536E000EEE
:1016F000546E000E556E12000001DF5107E10A0E14
:10170000DE5DD8B086EF0BF088EF0BF032EF0CF017
:101710004A504B104C104D10D8A491EF0BF093EFA2
:101720000BF0B6EF0BF0DE51DF11D8A49AEF0BF0FF
:101730009CEF0BF02FEF0CF0760E036E0350D8A445
:10174000060E046E800E056E6EEC12F0980E036E9F
:101750000350D8A4060E046EC00E056E6EEC12F097
:10176000010E026ED1EC13F02FEF0CF0CA0E036ED7
:101770000350D8A4060E046E800E056E6EEC12F0B7
:10178000BA0E036E0350D8A4060E046EC00E056E8A
:101790006EEC12F0030E0B6EE80E0A6E0A06D8A06D
:1017A0000B060A2806E10B28D8A4D9EF0BF0DBEFD3
:1017B0000BF0CEEF0BF05CC006F0076A086A096A0E
:1017C0000001D351065CD4510758D5510858D65161
:1017D0000958D8B0EEEF0BF0F0EF0BF029EF0CF05A
:1017E0000A0E5C60F6EF0BF0F8EF0BF029EF0CF04F
:1017F0000C6A1BEF0CF00001DC5100EC14F06BECF8
:1018000014F00001DC4BDD2B070E0C18D8B40BEFE5
:101810000CF00DEF0CF016EF0CF00A0E0C18D8A41B
:1018200014EF0CF016EF0CF01AEF0CF0200E6BEC2E
:1018300014F00C2A0C2A0D0E0C6421EF0CF023EF8F
:101840000CF0FBEF0BF0D80E026ED1EC13F02EEF84
:101850000CF0000EDD6F000EDC6F5C6A5C2A00018C
:10186000DE4BDF2B010EBF27000EC023C123C22396
:10187000310EBF1909E1750EC019C111C211D8A4EA
:1018800044EF0CF046EF0CF058EF0CF0000E016E38
:10189000010E9AEC13F0010E526E000E536E000E04
:1018A000546E000E556E000E0001DF6F000EDE6FED
:1018B0001200106E1050D8B460EF0CF062EF0CF014
:1018C00084EF0CF00BBE69EF0CF067EF0CF084EFC7
:1018D0000CF008C00CF009C00DF00AC00EF00BC0EF
:1018E0000FF00C1E0D1E0E1E0F1E0C2A000E0D22D8
:1018F0000E220F220CC012F00DC013F00EC014F017
:101900000FC015F08CEF0CF008C012F009C013F0F6
:101910000AC014F00BC015F0085009100A100B1083
:10192000D8A495EF0CF097EF0CF0A1EF0CF0000E9F
:10193000086E000E096E000E0A6E000E0B6E32EF7E
:101940000DF0960E116EABEF0CF0112AD8901532F7
:10195000143213321232000E12140C6E000E1314D5
:101960000D6E000E14140E6EFE0E15140F6E0C503C
:101970000D100E100F10D8A4C0EF0CF0C2EF0CF039
:10198000A5EF0CF0D0EF0CF0112A010E1226000E7C
:10199000132214221522D890153214321332123227
:1019A000000E12140C6E000E13140D6E000E1414A3
:1019B0000E6EFF0E15140F6E0C500D100E100F1042
:1019C000D8A4E5EF0CF0E7EF0CF0C4EF0CF0EFEF6C
:1019D0000CF01106D890123613361436153614BE94
:1019E000F4EF0CF0F6EF0CF0FEEF0CF0020E1160CD
:1019F000FCEF0CF0FEEF0CF0E9EF0CF011B003EF90
:101A00000DF005EF0DF006EF0DF0149ED890113299
:101A100011C00CF00D6A0E6A0F6A0CC00FF00E6A4E
:101A20000D6A0C6A0C5012120D5013120E50141243
:101A30000F5015121050D8B420EF0DF022EF0DF01A
:101A40002AEF0DF00BBE29EF0DF027EF0DF02AEF76
:101A50000DF0158E12C008F013C009F014C00AF082
:101A600015C00BF01200010E0001D327000ED42385
:101A7000D523D623000E156E000E146E1450E30FFE
:101A8000D96EDA6ADF500E6ECB517AEC13F0010E8C
:101A90000001CB27000ECC23CD23CE23144A152AD8
:101AA00015BE5CEF0DF0155009E1080E145CD8A0CE
:101AB0005CEF0DF05EEF0DF03EEF0DF0000E176ED7
:101AC000000E166E1250030DF350A00F1624D96E9F
:101AD000DA6ADF500E6ECB517AEC13F0010E000182
:101AE000CB27000ECC23CD23CE23164A172A17BEB0
:101AF00083EF0DF0175009E1020E165CD8A083EFBA
:101B00000DF085EF0DF062EF0DF04EC001F04FC00B
:101B100002F050C003F051C004F00A0E056E000E32
:101B2000066E000E076E000E086E37EC11F00150C5
:101B3000300F0E6E0001CB517AEC13F0010E000154
:101B4000CB27000ECC23CD23CE234EC001F04FC0B7
:101B500002F050C003F051C004F00A0E056E000EF2
:101B6000066E000E076E000E086E52EC10F001506B
:101B7000300F0E6E0001CB517AEC13F0010E000114
:101B8000CB27000ECC23CD23CE23D3C001F0D4C06D
:101B900002F0D5C003F0D6C004F00A0E056E000EA8
:101BA000066E000E076E000E086E37EC11F0015045
:101BB000021003100410D8A4E0EF0DF0E2EF0DF0D6
:101BC000EBEF0DF0000E0001CB6F000ECC6F000E9E
:101BD000CD6F000ECE6F120042C001F043C002F084
:101BE00044C003F045C004F00A0E056E000E066EF8
:101BF000000E076E000E086E37EC11F001C00EF0FB
:101C000002C00FF003C010F004C011F042C001F098
:101C100043C002F044C003F045C004F00A0E056E54
:101C2000000E066E000E076E000E086E52EC10F0ED
:101C30000138F00B0E10126E3EC001F03FC002F0F2
:101C400040C003F041C004F00A0E056E000E066E9F
:101C5000000E076E000E086E37EC11F001C00EF09A
:101C600002C00FF003C010F004C011F03EC001F03C
:101C70003FC002F040C003F041C004F00A0E056E00
:101C8000000E066E000E076E000E086E52EC10F08D
:101C90000138F00B0E10136E3AC001F03BC002F099
:101CA0003CC003F03DC004F00A0E056E000E066E47
:101CB000000E076E000E086E37EC11F001C00EF03A
:101CC00002C00FF003C010F004C011F03AC001F0E0
:101CD0003BC002F03CC003F03DC004F00A0E056EAC
:101CE000000E066E000E076E000E086E52EC10F02D
:101CF0000138F00B0E10146E12C002F0020E2AEC26
:101D000014F013C002F0010E2AEC14F014C002F01B
:101D1000000E2AEC14F01200819A818C818E81B21F
:101D200094EF0EF096EF0EF099EF0EF0010E0FEF1C
:101D30000FF081B49EEF0EF0A0EF0EF0A3EF0EF0C7
:101D4000040E0FEF0FF081B6A8EF0EF0AAEF0EF021
:101D5000ADEF0EF0070E0FEF0FF081B8B2EF0EF0FF
:101D6000B4EF0EF0B7EF0EF00A0E0FEF0FF0818A0E
:101D7000819C818E81B2BFEF0EF0C1EF0EF0C4EFF7
:101D80000EF0020E0FEF0FF081B4C9EF0EF0CBEFA3
:101D90000EF0CEEF0EF0050E0FEF0FF081B6D3EF81
:101DA0000EF0D5EF0EF0D8EF0EF0080E0FEF0FF09B
:101DB00081B8DDEF0EF0DFEF0EF0E2EF0EF00B0E6C
:101DC0000FEF0FF0818A818C819E819E81B2EBEFB3
:101DD0000EF0EDEF0EF0F0EF0EF0030E0FEF0FF040
:101DE00081B4F5EF0EF0F7EF0EF0FAEF0EF0060EFD
:101DF0000FEF0FF081B6FFEF0EF001EF0FF004EFE1
:101E00000FF0090E0FEF0FF081B809EF0FF00BEF95
:101E10000FF00EEF0FF00C0E0FEF0FF0FF0E120091
:101E200031343234386E3850D8A419EF0FF01BEF2C
:101E30000FF025EF0FF0000E2F6E000E306E000E2B
:101E4000316E000E326E92EF0FF02FC033F030C0C3
:101E500034F031C035F032C036F0200E35EF0FF0DF
:101E6000D8903632353234323332E82E30EF0FF03C
:101E70003350376E318EFF0E2F16FF0E3016FF0EC9
:101E80003116000E3216960E385E38BE4CEF0FF04B
:101E90004AEF0FF062EF0FF03850800A970FD8B07A
:101EA00054EF0FF056EF0FF058EF0FF01BEF0FF05D
:101EB000D8903232313230322F32383E58EF0FF074
:101EC0007AEF0FF01F0E386468EF0FF06AEF0FF033
:101ED00072EF0FF01BEF0FF0D8902F3630363136FF
:101EE000323638063850D8A478EF0FF07AEF0FF07A
:101EF0006CEF0FF03750D8B480EF0FF082EF0FF097
:101F00008AEF0FF0321E311E301E2F6C000E302271
:101F1000312232222FC02FF030C030F031C031F0EA
:101F200032C032F0120047EC14F0010EFEEC11F05A
:101F30005E6E5250531054105510D8A4A2EF0FF0FB
:101F4000A4EF0FF0A8EF0FF02FEC0AF095EF0FF0D1
:101F50005204531054105510D8A4B1EF0FF0B3EF42
:101F60000FF0B7EF0FF07CEC07F095EF0FF0020EDB
:101F70005218531054105510D8A4C1EF0FF0C3EFEE
:101F80000FF0C7EF0FF0D8EC08F095EF0FF0030E4D
:101F90005218531054105510D8A4D1EF0FF0D3EFAE
:101FA0000FF0D7EF0FF0BFEC11F095EF0FF0040E2C
:101FB0005218531054105510D8A4E1EF0FF0E3EF6E
:101FC0000FF0E7EF0FF07CEC0BF095EF0FF0050E44
:101FD0005218531054105510D8A4F1EF0FF0F3EF2E
:101FE0000FF0F7EF0FF070EC03F095EF0FF095EFB7
:101FF0000FF000EF00F0066A02BE03EF10F001EFF1
:1020000010F009EF10F0016C021ED8B0022A010E88
:10201000066E04BE10EF10F00EEF10F014EF10F08B
:10202000036C041ED8B0042A03500410D8B41BEF6C
:1020300010F01DEF10F041EF10F0010E056E25EFCE
:1020400010F0D89003360436052A04AE2AEF10F0BB
:102050002CEF10F021EF10F00350015C04500258F7
:10206000D8A035EF10F037EF10F03BEF10F0035031
:10207000015E0450025AD89004320332052E2CEF30
:1020800010F00650D8B447EF10F049EF10F04DEFC4
:1020900010F0016C021ED8B0022A01C001F002C08B
:1020A00002F01200000E096E000E0A6E000E0B6E9A
:1020B000000E0C6E0550061007100810D8B463EF20
:1020C00010F065EF10F09BEF10F0010E0D6E6FEF4A
:1020D00010F0D89005360636073608360D2A08AEB9
:1020E00074EF10F076EF10F069EF10F0D890093629
:1020F0000A360B360C360550015C06500258075064
:10210000035808500458D8A088EF10F08AEF10F058
:1021100093EF10F00550015E0650025A0750035A23
:102120000850045A0980D890083207320632053226
:102130000D2E76EF10F009C001F00AC002F00BC0BE
:1021400003F00CC004F012004650100DF350600F65
:10215000066E06C003F0046A820E056E6EEC12F085
:102160004650100DF350700F066E06C003F0046A5F
:10217000C20E056E6EEC12F00001C751C811C911F4
:10218000CA11D8A4C6EF10F0C8EF10F0DEEF10F0BF
:10219000DB0E036E0350D8A4060E046E800E056E8F
:1021A0006EEC12F0730E036E0350D8A4060E046E8C
:1021B000C00E056E6EEC12F0F2EF10F0730E036EAF
:1021C0000350D8A4060E046E800E056E6EEC12F05D
:1021D000DB0E036E0350D8A4060E046EC00E056E0F
:1021E0006EEC12F012000001E3510A0DF3CF01F082
:1021F000F4CF02F0E4510126000E0222F00E012479
:10220000036EFD0E0220046E03C042F004C043F0D2
:10221000446A456AE6510A0DF3CF01F0F4CF02F0AB
:10222000E7510126000E0222F00E0124036EFD0E7E
:102230000220046E03C03EF004C03FF0406A416AD1
:10224000E9510A0DF3CF01F0F4CF02F0EA51012673
:10225000000E0222F00E0124036EFD0E0220046E19
:1022600003C03AF004C03BF03C6A3D6A12000550DE
:10227000061007100810D8B440EF11F042EF11F02B
:1022800072EF11F0010E096E4CEF11F0D890053687
:10229000063607360836092A08AE51EF11F053EF1B
:1022A00011F046EF11F00550015C0650025807503E
:1022B000035808500458D8A060EF11F062EF11F0F5
:1022C0006AEF11F00550015E0650025A0750035A9A
:1022D0000850045AD8900832073206320532092EC7
:1022E00053EF11F001C001F002C002F003C003F08F
:1022F00004C004F01200020E15EC14F00001D76FB8
:10230000010E15EC14F00001D86F000E15EC14F05E
:102310000001D96FD7AD8FEF11F091EF11F09CEF65
:1023200011F0D7390F0B010B300FE36FD7510F0BA3
:10233000300FE46FA5EF11F0D7390F0B030B300FFF
:10234000E36FD7510F0B300FE46F3A0EE56FD839BA
:102350000F0B0F0B300FE66FD8510F0B300FE76FDD
:102360003A0EE86FD9390F0B0F0B300FE96FD951C7
:102370000F0B300FEA6F200EEB6FEC6B12002E0E7E
:10238000036E0350D8A4060E046E800E056E6EEC2C
:1023900012F0410E036E0350D8A4060E046EC00E58
:1023A000056E6EEC12F0000E4A6E000E4B6E000EC3
:1023B0004C6E000E4D6E010E0001BF27000EC023B3
:1023C000C123C223B90EBF1909E10B0EC019C111F7
:1023D000C211D8A4EEEF11F0F0EF11F0FDEF11F003
:1023E000000E016E010E9AEC13F0010E526E000EFB
:1023F000536E000E546E000E556E1200016E0104F5
:10240000D8A405EF12F007EF12F02AEF12F08CECCF
:102410000EF05D6E5D28D8B410EF12F012EF12F0DE
:102420001EEF12F05F50D8B418EF12F01AEF12F04E
:102430001EEF12F05F6A5D5037EF12F05D28D8A4EE
:1024400024EF12F026EF12F036EF12F0010E5F6E5D
:1024500036EF12F00150D8A430EF12F032EF12F044
:1024600036EF12F08CEC0EF037EF12F0FF0E120088
:102470000A0EF66E260EF76E000EF86E00EE60F095
:1024800010EE5BF00900F5CFEEFFE550E150FAE108
:102490004E0EF66E290EF76E000EF86E0900F5CF9F
:1024A0005FF002EE00F0820EEE6AE806FDE101EE5A
:1024B00000F0AA0EEE6AE806FDE100EEBBF0320E77
:1024C000EE6AE806FDE100EE3AF0250EEE6AE80657
:1024D000FDE1000EF86E000193EF0FF0000E016EAB
:1024E00005509AEC13F08BEF12F0010E016E03C051
:1024F000F6FF04C0F7FFF86A050EF76403D0080082
:10250000F55005D0F6CFE9FFF7CFEAFFEF509AEC90
:1025100013F0034A042A03C0F6FF04C0F7FFF86A69
:10252000050EF76403D00800F55005D0F6CFE9FF9B
:10253000F7CFEAFFEF500009D8A4A1EF12F0A3EF04
:1025400012F075EF12F0120003500410D8B4ABEF84
:1025500012F0ADEF12F0D1EF12F0010E056EB5EFF3
:1025600012F0D89003360436052A04AEBAEF12F002
:10257000BCEF12F0B1EF12F00350015C04500258AE
:10258000D8A0C5EF12F0C7EF12F0CBEF12F0035056
:10259000015E0450025AD89004320332052EBCEF7B
:1025A00012F001C001F002C002F01200C00E0E6E67
:1025B0000001E35154EC14F0C10E0E6E0001E45121
:1025C00054EC14F0C20E0E6E3A0E54EC14F0C30E1E
:1025D0000E6E0001E55154EC14F0C40E0E6E0001B5
:1025E000E65154EC14F0C50E0E6E3A0E54EC14F095
:1025F000C60E0E6E0001E75154EC14F0C70E0E6EBD
:102600000001E85154EC14F0120076696577206CF3
:102610006F672020202020202000636C65617220DD
:102620006C6F6720202020202000446F776E6C6F35
:102630006164206C6F67202020005365742054690A
:102640006D6520202020202020004F4E00474E00A6
:1026500047310047320047330047340047350047D1
:052660005200432000C0
:10266600000E15EC14F0046E04508009026E000E84
:102676002AEC14F0020E15EC14F0046E0450400916
:10268600026E020E2AEC14F0930E026E070E2AEC6E
:1026960014F0000E15EC14F0046E04507F0B026E5D
:1026A600000E2AEC14F01200076E07C003F0D89053
:1026B6000336D8900336C250C30B0310C26EC282D3
:1026C600C2B268EF13F06AEF13F063EF13F0C35072
:1026D600C4CF03F0046A03C004F0036A0310056E56
:1026E6000450066E05C001F006C002F01200116E1D
:1026F60098EC14F0A00E88EC14F0115088EC14F04D
:102706000E5088EC14F094EC14F0270E106E100E98
:102716000F6E0F06D8A010060F2806E11028D8A4C1
:1027260097EF13F099EF13F08CEF13F01200026E8F
:1027360001B0A0EF13F0A3EF13F08282A4EF13F021
:10274600829202C083FF82848294958E82808292D6
:102756008284829483BEB2EF13F0B4EF13F0ABEF32
:1027660013F08290959E1200956A9450F80B946E21
:102776008290000E016E020E9AEC13F0000E016EAE
:10278600380E9AEC13F0000E016E0C0E9AEC13F054
:10279600000E016E010E9AEC13F01200DCEF13F03E
:1027A60002C0F6FF060EF76E0800F5506BEC14F04B
:1027B600022A02C0F6FF060EF76E0800F550000961
:1027C600D8A4E8EF13F0EAEF13F0D3EF13F01200FA
:1027D600948E949CAC9CAC8AAC98AC96AC84AB8E34
:1027E600AB9CAB88B89EB896B892B890810EAF6E87
:1027F6009D889E989D8A9E9A1200026E98EC14F00F
:10280600A00E88EC14F0025088EC14F09CEC14F046
:10281600A10E88EC14F08EEC14F0036E94EC14F018
:1028260003501200026E98EC14F0D00E88EC14F0EF
:10283600025088EC14F09CEC14F0D10E88EC14F0E5
:102846008EEC14F0036E94EC14F003501200036E39
:1028560098EC14F0D00E88EC14F0035088EC14F0C9
:10286600025088EC14F094EC14F01200C08EC08A6A
:10287600C098C096C090C082C094C292C19AC198B6
:10288600C46AC36AC280120039EC14F0B7EC13F0C4
:1028960076EC14F0EBEC13F060EC14F033EC13F080
:1028A60012000F6E000E016E0E509AEC13F0010E20
:1028B600016E0F509AEC13F0120094869488280E3D
:1028C600C66E310EC86EC79CC78E9E96A196120024
:1028D600016E9EA871EF14F073EF14F06CEF14F014
:1028E60001C0ADFF12000F0EC16E1E0E936EF19E5B
:1028F6008150E009816E12009EA684EF14F086EFE7
:1029060014F07FEF14F09E961200016E01C0C9FF0D
:102916007FEC14F01200A0EC14F0A4EC14F0C950F3
:102926001200C5847FEC14F01200C5807FEC14F011
:102936001200C5827FEC14F01200C5867FEC14F0FD
:092946001200C58AC588120001C7
:020000040020DA
:08000000FFFFFFFFFFFFFFFF00
:020000040030CA
:0E000000FF071F1FFF8285FF0FC00FE00F409C
:00000001FF
